S012000042616C616E6365426F742E7372656347
S11300000C946D000C948A000C948A000C948A0061
S11300100C948A000C948A000C948A000C948A0034
S11300200C948A000C948A000C948A000C948A0024
S11300300C948A000C948A000C948A000C948A0014
S11300400C948A000C948A000C948A000C948A0004
S11300500C948A000C945C070C948A000C948A001B
S11300600C948A000C948A000C948A000C948A00E4
S11300700C948A000C948A000C948A000C948A00D4
S11300800C948A000C948A000C948A000C948A00C4
S11300900C948A000C948A000C948A000C948A00B4
S11300A00C948A000C948A000C948A00084AD73B6A
S11300B03BCE016E84BCBFFDC12F3D6C74319ABD33
S11300C056833DDA3D00C77F11BED9E4BB4C3E9157
S11300D06BAAAABE000000803F0011241FBECFEF10
S11300E0DAE0DEBFCDBF11E0A0E0B1E0EAE8F8E17C
S11300F002C005900D92A431B107D9F721E0A4E123
S1130100B1E001C01D92AE38B207E1F70E94670565
S11301100C94430C0C940000CF93DF93D82FC62F7C
S113012080ED0E9488078D2F0E94E3078C2F0E9488
S1130130E3070E94DA07DF91CF9108950E948207B6
S11301402FEF83EC99E0215080409040E1F700C00C
S11301500000E0E2F1E08FE692E1A3E8BBE386A3CE
S113016097A3A0A7B1A78CEC9CECACE4BFE382A35B
S113017093A3A4A3B5A3168A178A108E118E8FE6B3
S113018092E1A3E8BAE3868F978FA0A3B1A380ED91
S11301900E948807882321F00E94DA07889AFFCFFB
S11301A08BE60E94E30780E00E94E3070E94DA07DF
S11301B068E089E10E948C0068E08CE10E948C0078
S11301C060E18BE10E948C0068EF83E20E948C0066
S11301D060E48AE60E948C0008950F931F93CF93E6
S11301E0DF9380ED0E94AF078BE30E94E30781ED6C
S11301F00E94D7070E94F507C82FD0E000E211E063
S1130200F801D183C0830E940008DC2FCC27C82BBF
S1130210F801D183C0830E94DA0780ED0E94AF0702
S11302208FE30E94E30781ED0E94D7070E94F50740
S1130230C82FD0E0F801D383C2830E940008DC2FCA
S1130240CC27C82BF801D383C2830E94DA0780ED40
S11302500E94AF0785E40E94E30781ED0E94D7075F
S11302600E94F507C82FD0E0F801D583C4830E940B
S11302700008DC2FCC27C82BF801D583C4830E9447
S1130280DA07DF91CF911F910F9108954F925F92FA
S11302906F927F928F929F92AF92BF92CF92DF9292
S11302A0EF92FF92CF93DF93C0E2D1E0688179812E
S11302B0072E000C880B990B0E94990920E03EEF51
S11302C04FEF56E40E94EF0820E030E040E850E4AD
S11302D00E947D0A6B017C016E837F8388879987E6
S11302E06A817B81072E000C880B990B0E94990967
S11302F020E03EEF4FEF56E40E94EF0820E030E0AC
S113030040E850E40E947D0A4B015C016A877B87C8
S11303108C879D876C817D81072E000C880B990B3F
S11303200E94990920E03EEF4FEF56E40E94EF0847
S113033020E030E04AE754E40E947D0A6E877F871C
S1130340888B998B26E33AEF4EE85CE30E947D0AA2
S11303502E8D3F8D48A159A10E947D0A2B013C019D
S11303606A8F7B8F8C8F9D8FA5019401C701B60185
S11303700E948B086B017C016A8B7B8B8C8B9D8B21
S11303808AA09BA0ACA0BDA02E893F89488D598D21
S1130390C301B2010E940C08A50194010E947D0AC8
S11303A02B013C01A501940160E070E080E89FE32B
S11303B00E940B08A70196010E947D0A9B01AC01D3
S11303C0C301B2010E940C086AA77BA78CA79DA752
S11303D0DF91CF91FF90EF90DF90CF90BF90AF90DF
S11303E09F908F907F906F905F904F9008954F9261
S11303F05F926F927F928F929F92AF92BF92CF92B1
S1130400DF92EF92FF92CF93DF930E94ED000E9460
S1130410460140904A0150904B0160904C0170900D
S11304204D01A301920160E070E0CB010E940B0832
S11304306B017C01609318017093190180931A0178
S113044090931B01209114013091150140911601E4
S1130450509117010E940C084B015C0122E93AE01B
S113046046E05FE30E94700A18166CF482E99AE091
S1130470A6E0BFE38093140190931501A0931601A5
S1130480B09317011FC022E93AE046E05FEBC501D3
S1130490B4010E94EA0888234CF0809214019092DF
S11304A01501A0921601B09217010CC082E99AE0DE
S11304B0A6E0BFEB8093140190931501A09316015D
S11304C0B0931701C0E2D1E08E8C9F8CA8A0B9A094
S11304D020910E0130910F014091100150911101B2
S11304E0C701B6010E947D0A6B017C012E893F89F8
S11304F0488D598DC301B2010E940B0820910A0155
S113050030910B0140910C0150910D010E947D0A24
S1130510A50194010E94EF089B01AC01C701B6013B
S11305200E940B086B017C0120911401309115018C
S113053040911601509117016091060170910701D5
S113054080910801909109010E947D0AA5019401FE
S11305500E947D0A9B01AC01C701B6010E940C08F0
S11305600E9461096B017C01CB010E94BE05C6019A
S11305700E94DC0581E00E94B0058AA59BA5ACA57C
S1130580BDA58E8B9F8BA88FB98FDF91CF91FF90E4
S1130590EF90DF90CF90BF90AF909F908F907F901F
S11305A06F905F904F9008958F929F92AF92BF92F9
S11305B0CF92DF92EF92FF920F931F93CF93DF932B
S11305C00E94ED000E944601C1E0D0E0812C912CF4
S11305D0540100E211E00E94ED000E944601F8017E
S11305E0C2A4D3A4E4A4F5A4BE0161507109072EEA
S11305F0000C880B990B0E949909A50194010E9493
S11306007D0AA70196010E940C084B015C01BE0102
S11306100D2E000C880B990B0E9499099B01AC01CB
S1130620C501B4010E94EF084B015C01F801C68AC0
S1130630D78AE08EF18E2196C83EF3E0DF0759F6A3
S113064084E690E00E94BE0584E690E00E94DC050A
S113065081E00E94B005F99906C0B501A40180E0CB
S113066090E00E94150C8FE39CE90197F1F700C01C
S1130670000080E090E00E940F0C60934E017093A4
S11306804F0180935001909351019F7726EF38E2F8
S11306904CED5FE30E94EA0888231CF480E00E948A
S11306A0B005DF91CF911F910F91FF90EF90DF90F4
S11306B0CF90BF90AF909F908F900895CF92DF928C
S11306C0EF92FF92CF93DF9363E070E081E090E0DC
S11306D00E948305C2E5D1E099838883DC01ED9112
S11306E0FC9183E89FE9A0E2B1EC80839183A2832B
S11306F0B383E881F981A081B1814EED52E16DE9C6
S113070072EC14964D935D936D937C9317970190BF
S1130710F081E02D89ED9FE1A7EAB0EC8087918715
S1130720A287B38761E070E083E090E00E948305D4
S1130730998F888FDC01ED91FC91108211821282D5
S11307401382E88DF98D0190F081E02D14821582D9
S113075016821782E88DF98D0190F081E02D1086C4
S113076011861286138661E070E083E090E00E94B7
S113077083059B8F8A8FDC01ED91FC91108211829D
S113078012821382EA8DFB8D0190F081E02D148298
S1130790158216821782EA8DFB8D0190F081E02D7F
S11307A0108611861286138661E070E083E090E083
S11307B00E9483059B838A83DC01ED91FC918CED7F
S11307C093E6A8E0BDE380839183A283B383EA81A7
S11307D0FB810280F381E02D84E79BEAA3E4BDE37F
S11307E080839183A283B383EA81FB810480F581B2
S11307F0E02D8AED94ECACE5BFE380839183A28382
S1130800B38361E070E083E090E00E9483059D8300
S11308108C83DC01ED91FC9110821182128213828F
S1130820EC81FD810280F381E02D0F2EFBEDCF2EB4
S1130830FFE0DF2EF9E4EF2EF0E4FF2EF02DC0826E
S1130840D182E282F382EC81FD810480F581E02D86
S1130850108211821282138261E070E081E090E0E4
S11308600E9483059F838E83DC01ED91FC911082AD
S113087011821282138261E070E081E090E00E94B4
S11308808305998B888BDC01ED91FC911082118298
S11308901282138261E070E083E090E00E9483059D
S11308A099878887DC01ED91FC9110821182128274
S11308B01382E885F9850280F381E02DC082D1821C
S11308C0E282F382E885F9850480F581E02D1082C7
S11308D011821282138261E070E081E090E00E9454
S11308E083059B878A87DC01ED91FC91C082D182CC
S11308F0E282F38261E070E081E090E00E9483058F
S11309009B8B8A8BDC01ED91FC9110821182128207
S1130910138263E070E083E090E00E9483059D878A
S11309208C87DC01ED91FC9188E892EFADE7BFE3A1
S113093080839183A283B383EC85FD850190F0814C
S1130940E02D8DE493EFA6EABBE384839583A6832D
S1130950B783EC85FD850190F081E02D8CE09FE26A
S1130960ABE2B6E380879187A287B387EC85FD85E8
S11309700280F381E02D83EB9DEBABEBB7E3808347
S11309809183A283B383EC85FD850280F381E02DFE
S113099085E393E0A0E8BFE384839583A683B783CC
S11309A0EC85FD850280F381E02D47E853E163E89F
S11309B07AE34087518762877387EC85FD850480DD
S11309C0F581E02D41E259E167E37DE34083518302
S11309D062837383EC85FD850480F581E02D4AE60E
S11309E05FE868E47EE34483558366837783EC851C
S11309F0FD850480F581E02D80879187A287B387E8
S1130A0061E070E083E090E00E9483059F878E8719
S1130A10DC01ED91FC9185ED93E8AEE6BAE38083C9
S1130A209183A283B383EE85FF850280F381E02D59
S1130A308EE69FE6AAE2B6EB80839183A283B3831A
S1130A40EE85FF850480F581E02D8CE698E3A6EA27
S1130A50BBEB80839183A283B38361E070E083E086
S1130A6090E00E9483059D8B8C8B61E070E081E0B7
S1130A7090E00E9483059F8B8E8BDF91CF91FF9036
S1130A80EF90DF90CF900895809A819A0E945E0340
S1130A900E948F060E94030640913E0150913F013F
S1130AA0609140017091410127EF31E08DE791E0C1
S1130AB00E943C0624ED32E040E050E060E87FEB29
S1130AC08EE691E00E943C060E949E0008950E94DA
S1130AD0440580E090E00E940F0C60934E017093F7
S1130AE04F01809350019093510181E080937D01E7
S1130AF010926E018DE791E00E9469068EE691E006
S1130B000E946906F7CFCF92DF92EF92FF920F9384
S1130B101F93CF93DF93EC017B018C01000F111F16
S1130B20C8010E94EE0A6C011C161D067CF4EE0C32
S1130B30FF1CEE0CFF1CEC01080F191FC7010E94DB
S1130B40EE0A89939993C017D107C1F7C601DF91C3
S1130B50CF911F910F91FF90EF90DF90CF90089568
S1130B60882331F084B1806684B93F9A579A0895F6
S1130B7084B18F7984B93F98579808959C0199233B
S1130B8024F422273327281B390B4091120150E00B
S1130B90421753070CF49A0199233CF42093CF0095
S1130BA0109289001092880008951092CF0010923C
S1130BB089002093880008959C01992324F4222716
S1130BC03327281B390B4091120150E04217530779
S1130BD00CF49A0199233CF42093D20010928B00D8
S1130BE010928A0008951092D20010928B002093E4
S1130BF08A000895809112018093860080911201E9
S1130C008093D10008950F931F93CF93DF9384B102
S1130C108F7984B93F985798E0E8F0E08081806844
S1130C20808380818062808300EC10E0F801808101
S1130C3080688083C2ECD0E08881886088830E94C9
S1130C40FA05E1E8F0E0808181618083F801808128
S1130C5082608083E1ECF0E0808181608083888120
S1130C6081608883E3ECF0E0808181608083DF91A0
S1130C70CF911F910F910895FC01108241835283FB
S1130C8063837483128611861582168217821086F6
S1130C90348723870895CF92DF92EF92FF92FC016D
S1130CA08081882389F0C180D280E380F480CF01E1
S1130CB005960E940C079B01AC01C701B6010E9476
S1130CC0EA08881F8827881FFF90EF90DF90CF9055
S1130CD008951F93CF93DF93EC010E944B06182FC6
S1130CE08823C1F020E030E040E85FEB69817A813D
S1130CF08B819C810E94EA08811101C01882EB85D6
S1130D00FC8509950E94A3062D833E834F83588753
S1130D1069877A87812FDF91CF911F91089585B5D7
S1130D20836085BD89EF87BDEEE6F0E08081826057
S1130D308083789410921C0110921D0110921E0160
S1130D4010921F010895CF93DF9300D000D000D0FC
S1130D50CDB7DEB780911C0190911D01A0911E01B9
S1130D60B0911F0166B589839A83AB83BC8370E01D
S1130D70660F771F660F771F7E836D83282F3A8156
S1130D804B815C817E8180E090E026960FB6F894DA
S1130D90DEBF0FBECDBFDF91CF910895CF92DF921A
S1130DA0EF92FF92CF93DF9300D000D000D0CDB765
S1130DB0DEB70E94A30629833A834B835C836D8349
S1130DC07E8369817A818B819C810E94970920E0CE
S1130DD030E04AE754E40E94EF086B017C016D8126
S1130DE07E8180E090E00E94970920E034E244E7AD
S1130DF059E40E94EF08A70196010E940C08269668
S1130E000FB6F894DEBF0FBECDBFDF91CF91FF9038
S1130E10EF90DF90CF9008954F925F926F927F9200
S1130E208F929F92AF92BF92CF92DF92EF92FF92F6
S1130E30CF93DF93EC010E94CE066B017C016881A5
S1130E4079818A819B810E9497094B015C016C81A5
S1130E507D8180E090E00E9497092B013C0120E015
S1130E6030E04AE754E4C501B4010E94EF084B01A5
S1130E705C0120E034E244E759E4C301B2010E947A
S1130E80EF089B01AC01C501B4010E940C089B0151
S1130E90AC01C701B6010E940B08DF91CF91FF900E
S1130EA0EF90DF90CF90BF90AF909F908F907F9006
S1130EB06F905F904F9008951F920F920FB60F920C
S1130EC011248F939F93AF93BF9316BC80911C0101
S1130ED090911D01A0911E01B0911F010196A11DC9
S1130EE0B11D80931C0190931D01A0931E01B0932A
S1130EF01F01BF91AF919F918F910F900FBE0F90E3
S1130F001F9018951092B90088E48093B800089552
S1130F1094EA9093BC00ECEBF0E090819923ECF719
S1130F209091B900987F983011F09031A1F480939A
S1130F30BB0084E88093BC00ECEBF0E08081882364
S1130F40ECF79091B900987F983139F081E09034B2
S1130F5029F480E0089581E0089580E00895CF9316
S1130F60DF93ECEBF0E024EAA9EBB0E0CBEBD0E0CC
S1130F7034E844E9208390819923ECF79C91987F8D
S1130F80983011F09031B1F78883308390819923A0
S1130F90ECF79C91987F903211F0983529F44083B6
S1130FA0908194FDFDCFE6CFDF91CF9108950E940B
S1130FB08807089584E98093BC00ECEBF0E080811D
S1130FC084FDFDCF08958093BB0084E88093BC002A
S1130FD0ECEBF0E080818823ECF79091B900987FE6
S1130FE081E0983209F480E0089584EC8093BC0099
S1130FF0ECEBF0E080818823ECF78091BB0008954E
S113100084E88093BC00ECEBF0E080818823ECF76B
S11310108091BB0008955058BB27AA270E9423083B
S11310200C94360A0E94280A38F00E942F0A20F0F5
S113103039F49F3F19F426F40C94FE090EF4E0955C
S1131040E7FB0C94F809E92F0E94470A58F3BA17F2
S1131050620773078407950720F079F4A6F50C94CA
S1131060690A0EF4E0950B2EBA2FA02D0B01B901DD
S113107090010C01CA01A0011124FF27591B99F00A
S1131080593F50F4503E68F11A16F040A22F232F16
S1131090342F4427585FF3CF469537952795A79566
S11310A0F0405395C9F77EF41F16BA0B620B730B0D
S11310B0840BBAF09150A1F0FF0FBB1F661F771F7E
S11310C0881FC2F70EC0BA0F621F731F841F48F433
S11310D0879577956795B795F7959E3F08F0B0CFBC
S11310E09395880F08F09927EE0F979587950895A3
S11310F00E94280A60F080E891E009F49EEF0E94C3
S11311002F0A28F040E851E071F45EEF0CC00C9413
S1131110FE090C94690AE92FE0780E94470A40F31B
S1131120092E052AB1F3261737074807590738F05F
S11311300E2E07F8E02569F0E025E0640AC0EF63AD
S113114007F8009407FADB01B9019D01DC01CA012B
S1131150AD01EF930E9406090E94360A0E94BB0863
S11311605F91552339F02BED3FE049E450FD49EC04
S11311700C940C080895DF93DD27B92FBF7740E85E
S11311805FE31616170648075B0718F4D92F0E9469
S1131190750A9F938F937F936F930E94EA0AECEAF8
S11311A0F0E00E94010A0E94360A2F913F914F916C
S11311B05F910E94900ADD2351F09058A2EA2AED33
S11311C03FE049EC5FE3D0785D270E942308DF917C
S11311D00C94360A0E94D40908F481E008950E9410
S11311E003090C94360A0E942F0A58F00E94280A18
S11311F040F029F45F3F29F00C94F80951110C9444
S11312006A0A0C94FE090E94470A68F39923B1F311
S1131210552391F3951B550BBB27AA276217730718
S1131220840738F09F5F5F4F220F331F441FAA1FAC
S1131230A9F335D00E2E3AF0E0E832D09150504068
S1131240E695001CCAF72BD0FE2F29D0660F771F16
S1131250881FBB1F261737074807AB07B0E809F0FC
S1131260BB0B802DBF01FF2793585F4F3AF09E3F81
S1131270510578F00C94F8090C946A0A5F3FE4F382
S1131280983ED4F3869577956795B795F7959F5FC4
S1131290C9F7880F911D9695879597F90895E1E010
S11312A0660F771F881FBB1F621773078407BA076F
S11312B020F0621B730B840BBA0BEE1F88F7E095CA
S11312C008950E9468096894B1110C946A0A0895FB
S11312D00E944F0A88F09F5798F0B92F9927B75169
S11312E0B0F0E1F0660F771F881F991F1AF0BA95C6
S11312F0C9F714C0B13091F00E94690AB1E00895B1
S11313000C94690A672F782F8827B85F39F0B93FA2
S1131310CCF3869577956795B395D9F73EF4909578
S11313208095709561957F4F8F4F9F4F0895E894F6
S113133009C097FB3EF490958095709561957F4F19
S11313408F4F9F4F9923A9F0F92F96E9BB279395C7
S1131350F695879577956795B795F111F8CFFAF4D7
S1131360BB0F11F460FF1BC06F5F7F4F8F4F9F4F08
S113137016C0882311F096E911C0772321F09EE866
S1131380872F762F05C0662371F096E8862F70E0CC
S113139060E02AF09A95660F771F881FDAF7880FA6
S11313A09695879597F90895990F0008550FAA0BFC
S11313B0E0E8FEEF16161706E807F907C0F0121664
S11313C01306E407F50798F0621B730B840B950B67
S11313D039F40A2661F0232B242B252B21F40895BC
S11313E00A2609F4A140A6958FEF811D811D089559
S11313F097F99F6780E870E060E008959FEF80ECC4
S11314000895DF93CF931F930F93FF92EF92DF9290
S11314107B018C01689406C0DA2EEF010E94900AC9
S1131420FE01E894A5912591359145915591A6F336
S1131430EF010E942308FE019701A801DA9469F7DD
S1131440DF90EF90FF900F911F91CF91DF9108955E
S113145000240A941616170618060906089500248F
S11314600A9412161306140605060895092E039409
S1131470000C11F4882352F0BB0F40F4BF2B11F47D
S113148060FF04C06F5F7F4F8F4F9F4F089557FDDC
S11314909058440F551F59F05F3F71F04795880FDE
S11314A097FB991F61F09F3F79F087950895121675
S11314B013061406551FF2CF4695F1DF08C0161621
S11314C017061806991FF1CF8695710561050894D2
S11314D00895E894BB2766277727CB0197F90895E9
S11314E00E94D40908F48FEF08959B01AC0160E0D9
S11314F070E080E89FE30C94EF080E94900A0C943B
S1131500360A0E94280A38F00E942F0A20F09523F8
S113151011F00C94F8090C94FE0911240C946A0A35
S11315200E94470A70F3959FC1F3950F50E0551F31
S1131530629FF001729FBB27F00DB11D639FAA2724
S1131540F00DB11DAA1F649F6627B00DA11D661F73
S1131550829F2227B00DA11D621F739FB00DA11D94
S1131560621F839FA00D611D221F749F3327A00D4E
S1131570611D231F849F600D211D822F762F6A2FEA
S113158011249F5750409AF0F1F088234AF0EE0F4F
S1131590FF1FBB1F661F771F881F91505040A9F77C
S11315A09E3F510580F00C94F8090C946A0A5F3F41
S11315B0E4F3983ED4F3869577956795B795F795B8
S11315C0E7959F5FC1F7FE2B880F911D9695879530
S11315D097F908959B01AC010C947D0A0F931F9316
S11315E0CF93DF938230910510F482E090E0E09194
S11315F08C01F0918D0120E030E0A0E0B0E0309764
S113160019F1408151810281138148175907C8F0AB
S11316108417950769F4109731F012960C9312977A
S113162013961C9327C000938C0110938D0122C044
S11316302115310519F04217530718F49A01BD0119
S1131640EF01DF01F801DBCF21153105F9F0281B8B
S1131650390B2430310580F48A819B816115710531
S113166021F0FB019383828304C090938D018093C6
S11316708C01FE01329644C0FE01E20FF31F8193F8
S1131680919322503109398328833AC020918A01E9
S113169030918B01232B41F42091020130910301FD
S11316A030938B0120938A01209100013091010134
S11316B02115310541F42DB73EB7409104015091F5
S11316C00501241B350BE0918A01F0918B01E2178F
S11316D0F307A0F42E1B3F0B2817390778F0AC0151
S11316E04E5F5F4F2417350748F04E0F5F1F50932E
S11316F08B0140938A018193919302C0E0E0F0E072
S1131700CF01DF91CF911F910F910895CF93DF9374
S1131710009709F481C0FC01329713821282A091D0
S11317208C01B0918D01109781F420813181820F59
S1131730931F20918A0130918B012817390751F5A5
S1131740F0938B01E0938A0167C0ED0120E030E063
S1131750CE17DF0740F44A815B819E014115510594
S1131760F1F0EA01F5CFD383C28340815181840F24
S1131770951FC817D90759F488819981840F951F3B
S11317800296918380838A819B819383828321152E
S1131790310529F4F0938D01E0938C013DC0E901FA
S11317A0FB83EA8349915991C40FD51FEC17FD07B8
S11317B061F480819181840F951F0296E9019983D8
S11317C08883828193819B838A83E0E0F0E0129690
S11317D08D919C911397009719F0FD01DC01F7CFCF
S11317E08D919C9111979D012E5F3F4F820F931F06
S11317F020918A0130918B012817390769F43097B9
S113180029F410928D0110928C0102C0138212826D
S1131810B0938B01A0938A01DF91CF910895A6E143
S1131820B0E044E050E00C94230C0396272F0E9470
S1131830320C0E94310C252F0E94320C242F0C9460
S1131840320CDC01CB01FC01F999FECF06C0F2BDDC
S1131850E1BDF89A319600B40D9241505040B8F76A
S11318600895262FF999FECF92BD81BDF89A01976C
S113187000B4021639F01FBA20BD0FB6F894FA9AD4
S10D1880F99A0FBE0895F894FFCF03
S113188A00008E01200000000C420000803F00B0DE
S107189A9545FF006D
S9030000FC
