:100000000C946D000C948A000C948A000C948A0065
:100010000C948A000C948A000C948A000C948A0038
:100020000C948A000C948A000C948A000C948A0028
:100030000C948A000C948A000C948A000C948A0018
:100040000C948A000C948A000C948A000C948A0008
:100050000C948A000C943D050C948A000C948A0040
:100060000C948A000C948A000C948A000C948A00E8
:100070000C948A000C948A000C948A000C948A00D8
:100080000C948A000C948A000C948A000C948A00C8
:100090000C948A000C948A000C948A000C948A00B8
:1000A0000C948A000C948A000C948A00084AD73B6E
:1000B0003BCE016E84BCBFFDC12F3D6C74319ABD37
:1000C00056833DDA3D00C77F11BED9E4BB4C3E915B
:1000D0006BAAAABE000000803F0011241FBECFEF14
:1000E000DAE0DEBFCDBF11E0A0E0B1E0E0E0F2E198
:1000F00002C005900D92A630B107D9F721E0A6E025
:10010000B1E001C01D92A636B207E1F70E94750367
:100110000C94FE080C940000CF93DF93D82FC62FC9
:1001200080ED0E9469058D2F0E94C4058C2F0E94CE
:10013000C4050E94BB05DF91CF9108950E9463051D
:100140002FEF83EC99E0215080409040E1F700C010
:100150000000EAE1F1E082E490E6A5EEBBE386A3CD
:1001600097A3A0A7B1A780E090E0A0E6BFE382A399
:1001700093A3A4A3B5A3168A178A108E118E8FE6B7
:1001800092E1A3E8BAE3868F978FA0A3B1A380ED95
:100190000E946905882321F00E94BB05889AFFCF41
:1001A0008BE60E94C40580E00E94C4050E94BB0546
:1001B00068E089E10E948C0068E08CE10E948C007C
:1001C00060E18BE10E948C0068EF83E20E948C006A
:1001D00060E48AE60E948C0008950F931F93CF93EA
:1001E000DF9380ED0E9490058BE30E94C40581EDB2
:1001F0000E94B8050E94D605C82FD0E00AE111E0A0
:10020000F801D183C0830E94E105DC2FCC27C82BE5
:10021000F801D183C0830E94BB0580ED0E94900548
:100220008FE30E94C40581ED0E94B8050E94D605A7
:10023000C82FD0E0F801D383C2830E94E105DC2FF0
:10024000CC27C82BF801D383C2830E94BB0580ED65
:100250000E94900585E40E94C40581ED0E94B805C6
:100260000E94D605C82FD0E0F801D583C4830E9430
:10027000E105DC2FCC27C82BF801D583C4830E946D
:10028000BB05DF91CF911F910F9108954F925F921F
:100290006F927F928F929F92AF92BF92CF92DF9296
:1002A000EF92FF92CF93DF93CAE1D1E06881798129
:1002B000072E000C880B990B0E947A0720E03EEF76
:1002C0004FEF56E40E94D00620E030E040E850E4D2
:1002D0000E9459086B017C016E837F838887998710
:1002E0006A817B81072E000C880B990B0E947A078C
:1002F00020E03EEF4FEF56E40E94D00620E030E0D1
:1003000040E850E40E9459084B015C016A877B87F2
:100310008C879D876C817D81072E000C880B990B43
:100320000E947A0720E03EEF4FEF56E40E94D0068D
:1003300020E030E04AE754E40E9459086E877F8746
:10034000888B998B26E33AEF4EE85CE30E945908CC
:100350002E8D3F8D48A159A10E9459082B013C01C7
:100360006A8F7B8F8C8F9D8FA5019401C701B60189
:100370000E946C066B017C016A8B7B8B8C8B9D8B46
:100380008AA09BA0ACA0BDA02E893F89488D598D25
:10039000C301B2010E94ED05A50194010E94590814
:1003A0002B013C01A501940160E070E080E89FE32F
:1003B0000E94EC05A70196010E9459089B01AC011F
:1003C000C301B2010E94ED056AA77BA78CA79DA778
:1003D000DF91CF91FF90EF90DF90CF90BF90AF90E3
:1003E0009F908F907F906F905F904F9008954F9265
:1003F0005F926F927F928F929F92AF92BF92CF92B5
:10040000DF92EF92FF92CF93DF9300D000D0CDB771
:10041000DEB70E94ED000E94460180914401909158
:100420004501A0914601B091470189839A83AB832E
:10043000BC8320E030E0A90160914801709149013E
:1004400080914A0190914B010E94ED0529813A81EA
:100450004B815C810E94EC056B017C0160930A0179
:1004600070930B0180930C0190930D012091060174
:100470003091070140910801509109010E94ED055A
:100480002B013C01609306017093070180930801E2
:10049000909309018090380190903901A0903A0121
:1004A000B0903B0120910001309101014091020187
:1004B00050910301C701B6010E9459086B017C01EC
:1004C000209130013091310140913201509133013E
:1004D00069817A818B819C810E94EC0520911201B7
:1004E0003091130140911401509115010E94590857
:1004F000A50194010E94D0069B01AC01C701B60181
:100500000E94EC056B017C0120910E0130910F01DE
:100510004091100150911101C301B2010E9459088C
:10052000A50194010E9459089B01AC01C701B601C5
:100530000E94ED050E9442076B017C01CB010E94E5
:100540009F03C6010E94BD0381E00E949103809138
:10055000440190914501A0914601B09147018093DB
:10056000300190933101A0933201B09333010F9089
:100570000F900F900F90DF91CF91FF90EF90DF9051
:10058000CF90BF90AF909F908F907F906F905F9033
:100590004F9008958F929F92AF92BF92CF92DF9229
:1005A000EF92FF920F931F93CF93DF930E94ED0082
:1005B0000E944601C1E0D0E0812C912C54010AE157
:1005C00011E00E94ED000E944601F801C2A4D3A4EC
:1005D000E4A4F5A4BE0161507109072E000C880B3C
:1005E000990B0E947A07A50194010E945908A7015E
:1005F00096010E94ED054B015C01BE010D2E000C21
:10060000880B990B0E947A079B01AC01C501B401CC
:100610000E94D0064B015C01F801C68AD78AE08EA1
:10062000F18E2196C83EF3E0DF0759F684E690E0AC
:100630000E949F0384E690E00E94BD0381E00E9437
:100640009103F99906C0B501A40180E090E00E94F1
:10065000D0088FE39CE90197F1F700C0000080E02B
:1006600090E00E94CA08609348017093490180930A
:100670004A0190934B019F7726EF38E24CED5FE300
:100680000E94CB0688231CF480E00E949103DF9136
:10069000CF911F910F91FF90EF90DF90CF90BF907F
:1006A000AF909F908F900895809A819A0E947004D5
:1006B0000E94E403409138015091390160913A0160
:1006C00070913B0127EF31E089E591E00E941D0424
:1006D0002AEC32E040E050E060E87FEB8CE491E00F
:1006E0000E941D040E949E0008950E94540380E011
:1006F00090E00E94CA08609348017093490180937A
:100700004A0190934B0181E08093590110924C0172
:1007100089E591E00E944A048CE491E00E944A0439
:10072000F7CF882331F084B1806684B93F9A579A15
:10073000089584B18F7984B93F98579808959C01A2
:10074000992324F422273327281B390B40910401D5
:1007500050E0421753070CF49A0199233CF420937C
:10076000CF00109289001092880008951092CF0057
:10077000109289002093880008959C01992324F405
:1007800022273327281B390B4091040150E04217E0
:1007900053070CF49A0199233CF42093D200109251
:1007A0008B0010928A0008951092D20010928B0054
:1007B00020938A000895809104018093860080919F
:1007C00004018093D10008950F931F93CF93DF937B
:1007D00084B18F7984B93F985798E0E8F0E0808140
:1007E0008068808380818062808300EC10E0F80163
:1007F000808180688083C2ECD0E0888188608883B3
:100800000E94DB03E1E8F0E0808181618083F801F0
:10081000808182608083E1ECF0E080818160808370
:10082000888181608883E3ECF0E08081816080834F
:10083000DF91CF911F910F910895FC0110824183A8
:1008400052836383748312861186158216821782FF
:100850001086348723870895CF92DF92EF92FF921C
:10086000FC018081882389F0C180D280E380F480FC
:10087000CF0105960E94ED049B01AC01C701B601B2
:100880000E94CB06881F8827881FFF90EF90DF907B
:10089000CF9008951F93CF93DF93EC010E942C0417
:1008A000182F8823C1F020E030E040E85FEB698139
:1008B0007A818B819C810E94CB06811101C01882B4
:1008C000EB85FC8509950E9484042D833E834F832C
:1008D000588769877A87812FDF91CF911F9108957B
:1008E00085B5836085BD89EF87BDEEE6F0E0808148
:1008F00082608083789410921601109217011092F2
:100900001801109219010895CF93DF9300D000D001
:1009100000D0CDB7DEB78091160190911701A0915C
:100920001801B091190166B589839A83AB83BC83A2
:1009300070E0660F771F660F771F7E836D83282F09
:100940003A814B815C817E8180E090E026960FB6F3
:10095000F894DEBF0FBECDBFDF91CF910895CF9247
:10096000DF92EF92FF92CF93DF9300D000D000D0C0
:10097000CDB7DEB70E94840429833A834B835C831E
:100980006D837E8369817A818B819C810E94780747
:1009900020E030E04AE754E40E94D0066B017C017D
:1009A0006D817E8180E090E00E94780720E034E253
:1009B00044E759E40E94D006A70196010E94ED0584
:1009C00026960FB6F894DEBF0FBECDBFDF91CF9154
:1009D000FF90EF90DF90CF9008954F925F926F92CB
:1009E0007F928F929F92AF92BF92CF92DF92EF92BF
:1009F000FF92CF93DF93EC010E94AF046B017C0167
:100A0000688179818A819B810E9478074B015C0112
:100A10006C817D8180E090E00E9478072B013C0191
:100A200020E030E04AE754E4C501B4010E94D0065A
:100A30004B015C0120E034E244E759E4C301B20118
:100A40000E94D0069B01AC01C501B4010E94ED05D6
:100A50009B01AC01C701B6010E94EC05DF91CF916B
:100A6000FF90EF90DF90CF90BF90AF909F908F90CE
:100A70007F906F905F904F9008951F920F920FB6E6
:100A80000F9211248F939F93AF93BF9316BC8091C5
:100A9000160190911701A0911801B09119010196CA
:100AA000A11DB11D8093160190931701A093180109
:100AB000B0931901BF91AF919F918F910F900FBE8D
:100AC0000F901F9018951092B90088E48093B80099
:100AD000089594EA9093BC00ECEBF0E090819923A8
:100AE000ECF79091B900987F983011F09031A1F413
:100AF0008093BB0084E88093BC00ECEBF0E0808145
:100B00008823ECF79091B900987F983139F081E013
:100B1000903429F480E0089581E0089580E00895FC
:100B2000CF93DF93ECEBF0E024EAA9EBB0E0CBEB62
:100B3000D0E034E844E9208390819923ECF79C913C
:100B4000987F983011F09031B1F78883308390818D
:100B50009923ECF79C91987F903211F0983529F405
:100B60004083908194FDFDCFE6CFDF91CF91089532
:100B70000E946905089584E98093BC00ECEBF0E0E5
:100B8000808184FDFDCF08958093BB0084E880932D
:100B9000BC00ECEBF0E080818823ECF79091B90089
:100BA000987F81E0983209F480E0089584EC809386
:100BB000BC00ECEBF0E080818823ECF78091BB0077
:100BC000089584E88093BC00ECEBF0E080818823FA
:100BD000ECF78091BB0008955058BB27AA270E94CC
:100BE00004060C9417080E94090838F00E941008A7
:100BF00020F039F49F3F19F426F40C94DF070EF42B
:100C0000E095E7FB0C94D907E92F0E94280858F3D8
:100C1000BA17620773078407950720F079F4A6F5E1
:100C20000C944A080EF4E0950B2EBA2FA02D0B0160
:100C3000B90190010C01CA01A0011124FF27591B21
:100C400099F0593F50F4503E68F11A16F040A22F27
:100C5000232F342F4427585FF3CF46953795279598
:100C6000A795F0405395C9F77EF41F16BA0B620B97
:100C7000730B840BBAF09150A1F0FF0FBB1F661FDE
:100C8000771F881FC2F70EC0BA0F621F731F841F21
:100C900048F4879577956795B795F7959E3F08F047
:100CA000B0CF9395880F08F09927EE0F9795879509
:100CB00008950E94090860F080E891E009F49EEF31
:100CC0000E94100828F040E851E071F45EEF0CC07B
:100CD0000C94DF070C944A08E92FE0780E9428085A
:100CE00040F3092E052AB1F326173707480759079D
:100CF00038F00E2E07F8E02569F0E025E0640AC020
:100D0000EF6307F8009407FADB01B9019D01DC01EC
:100D1000CA01AD01EF930E94E7060E9417080E94E6
:100D20009C065F91552339F02BED3FE049E450FDDF
:100D300049EC0C94ED050895DF93DD27B92FBF77BB
:100D400040E85FE31616170648075B0718F4D92F2B
:100D50000E9451089F938F937F936F930E94C608C0
:100D6000ECEAF0E00E94E2070E9417082F913F9101
:100D70004F915F910E946C08DD2351F09058A2EAD8
:100D80002AED3FE049EC5FE3D0785D270E9404063E
:100D9000DF910C9417080E94B50708F481E00895CC
:100DA0000E94E4060C9417080E94100858F00E9454
:100DB000090840F029F45F3F29F00C94D90751113C
:100DC0000C944B080C94DF070E94280868F39923C1
:100DD000B1F3552391F3951B550BBB27AA27621737
:100DE0007307840738F09F5F5F4F220F331F441F44
:100DF000AA1FA9F335D00E2E3AF0E0E832D0915078
:100E00005040E695001CCAF72BD0FE2F29D0660F64
:100E1000771F881FBB1F261737074807AB07B0E8A7
:100E200009F0BB0B802DBF01FF2793585F4F3AF0AD
:100E30009E3F510578F00C94D9070C944B085F3F06
:100E4000E4F3983ED4F3869577956795B795F79533
:100E50009F5FC9F7880F911D9695879597F908951B
:100E6000E1E0660F771F881FBB1F621773078407B7
:100E7000BA0720F0621B730B840BBA0BEE1F88F7C6
:100E8000E09508950E9449076894B1110C944B08AD
:100E900008950E94300888F09F5798F0B92F99273D
:100EA000B751B0F0E1F0660F771F881F991F1AF055
:100EB000BA95C9F714C0B13091F00E944A08B1E068
:100EC00008950C944A08672F782F8827B85F39F067
:100ED000B93FCCF3869577956795B395D9F73EF4EE
:100EE00090958095709561957F4F8F4F9F4F089596
:100EF000E89409C097FB3EF49095809570956195B4
:100F00007F4F8F4F9F4F9923A9F0F92F96E9BB2769
:100F10009395F695879577956795B795F111F8CFE5
:100F2000FAF4BB0F11F460FF1BC06F5F7F4F8F4F50
:100F30009F4F16C0882311F096E911C0772321F046
:100F40009EE8872F762F05C0662371F096E8862FDE
:100F500070E060E02AF09A95660F771F881FDAF735
:100F6000880F9695879597F90895990F0008550F62
:100F7000AA0BE0E8FEEF16161706E807F907C0F01F
:100F800012161306E407F50798F0621B730B840B27
:100F9000950B39F40A2661F0232B242B252B21F401
:100FA00008950A2609F4A140A6958FEF811D811DA1
:100FB000089597F99F6780E870E060E008959FEFDB
:100FC00080EC0895DF93CF931F930F93FF92EF92DE
:100FD000DF927B018C01689406C0DA2EEF010E943B
:100FE0006C08FE01E894A5912591359145915591A4
:100FF000A6F3EF010E940406FE019701A801DA940E
:1010000069F7DF90EF90FF900F911F91CF91DF91E3
:10101000089500240A94161617061806090608955E
:1010200000240A9412161306140605060895092EC4
:101030000394000C11F4882352F0BB0F40F4BF2B33
:1010400011F460FF04C06F5F7F4F8F4F9F4F089573
:1010500057FD9058440F551F59F05F3F71F0479569
:10106000880F97FB991F61F09F3F79F0879508954E
:10107000121613061406551FF2CF4695F1DF08C06D
:10108000161617061806991FF1CF8695710561058A
:1010900008940895E894BB2766277727CB0197F932
:1010A00008959B01AC0160E070E080E89FE30C9440
:1010B000D0060E946C080C9417080E94090838F0AA
:1010C0000E94100820F0952311F00C94D9070C947D
:1010D000DF0711240C944B080E94280870F3959F99
:1010E000C1F3950F50E0551F629FF001729FBB271F
:1010F000F00DB11D639FAA27F00DB11DAA1F649FBB
:101100006627B00DA11D661F829F2227B00DA11D6D
:10111000621F739FB00DA11D621F839FA00D611DF3
:10112000221F749F3327A00D611D231F849F600D14
:10113000211D822F762F6A2F11249F5750409AF03D
:10114000F1F088234AF0EE0FFF1FBB1F661F771FC9
:10115000881F91505040A9F79E3F510580F00C9494
:10116000D9070C944B085F3FE4F3983ED4F386957F
:1011700077956795B795F795E7959F5FC1F7FE2B34
:10118000880F911D9695879597F908959B01AC015D
:101190000C945908A6E1B0E044E050E00C94DE085D
:1011A0000396272F0E94ED080E94EC08252F0E942D
:1011B000ED08242F0C94ED08DC01CB01FC01F9991A
:1011C000FECF06C0F2BDE1BDF89A319600B40D9293
:1011D00041505040B8F70895262FF999FECF92BD9F
:1011E00081BDF89A019700B4021639F01FBA20BDEC
:1011F0000FB6F894FA9AF99A0FBE0895F894FFCFB3
:0612000000C05A44FF008B
:00000001FF
