:100000000C946D000C948A000C948A000C948A0065
:100010000C948A000C948A000C948A000C948A0038
:100020000C948A000C948A000C948A000C948A0028
:100030000C948A000C948A000C948A000C948A0018
:100040000C948A000C948A000C948A000C948A0008
:100050000C948A000C94AF080C948A000C948A00CB
:100060000C948A000C948A000C948A000C948A00E8
:100070000C948A000C948A000C948A000C948A00D8
:100080000C948A000C948A000C948A000C948A00C8
:100090000C948A000C948A000C948A000C948A00B8
:1000A0000C948A000C948A000C948A00084AD73B6E
:1000B0003BCE016E84BCBFFDC12F3D6C74319ABD37
:1000C00056833DDA3D00C77F11BED9E4BB4C3E915B
:1000D0006BAAAABE000000803F0011241FBECFEF14
:1000E000DAE0DEBFCDBF11E0A0E0B1E0E6E7F0E28C
:1000F00002C005900D92A832B107D9F721E0A8E21D
:10010000B1E001C01D92AC39B207E1F70E94F504DD
:100110000C9439100C940000CF93DF93D82FC62F86
:1001200080ED0E94DB088D2F0E9436098C2F0E94E3
:1001300036090E942D09DF91CF9108950E94D508BC
:100140002FEF83EC99E0215080409040E1F700C010
:100150000000ECE2F1E086EA9BE9A4E4BBE386A3BD
:1001600097A3A0A7B1A780E090E0A0E4BFE382A39B
:1001700093A3A4A3B5A3168A178A108E118E8FE6B7
:1001800092E1A3E8BAE3868F978FA0A3B1A380ED95
:100190000E94DB08882321F00E942D09889AFFCF56
:1001A0008BE60E94360980E00E9436090E942D09E4
:1001B00068E089E10E948C0068E08CE10E948C007C
:1001C00060E18BE10E948C0068EF83E20E948C006A
:1001D00060E48AE60E948C0008950F931F93CF93EA
:1001E000DF9380ED0E9402098BE30E94360981EDC6
:1001F0000E942A090E944809C82FD0E00CE211E0B1
:10020000F801D183C0830E945309DC2FCC27C82B6F
:10021000F801D183C0830E942D0980ED0E9402095C
:100220008FE30E94360981ED0E942A090E94480945
:10023000C82FD0E0F801D383C2830E945309DC2F7A
:10024000CC27C82BF801D383C2830E942D0980EDEF
:100250000E94020985E40E94360981ED0E942A0964
:100260000E944809C82FD0E0F801D583C4830E94BA
:100270005309DC2FCC27C82BF801D583C4830E94F7
:100280002D09DF91CF911F910F9108954F925F92A9
:100290006F927F928F929F92AF92BF92CF92DF9296
:1002A000EF92FF92CF93DF93CCE2D1E06881798126
:1002B000072E000C880B990B0E94B60A20E03EEF37
:1002C0004FEF56E40E94420A20E030E040E850E45C
:1002D0000E94950B6B017C016E837F8388879987D1
:1002E0006A817B81072E000C880B990B0E94B60A4D
:1002F00020E03EEF4FEF56E40E94420A20E030E05B
:1003000040E850E40E94950B4B015C016A877B87B3
:100310008C879D876C817D81072E000C880B990B43
:100320000E94B60A20E03EEF4FEF56E40E94420AD8
:1003300020E030E04AE754E40E94950B6E877F8707
:10034000888B998B26E33AEF4EE85CE30E94950B8D
:100350002E8D3F8D48A159A10E94950B2B013C0188
:100360006A8F7B8F8C8F9D8FA5019401C701B60189
:100370000E94DE096B017C016A8B7B8B8C8B9D8BD1
:100380008AA09BA0ACA0BDA02E893F89488D598D25
:10039000C301B2010E945F09A50194010E94950B5F
:1003A0002B013C01A501940160E070E080E89FE32F
:1003B0000E945E09A70196010E94950B9B01AC016A
:1003C000C301B2010E945F096AA77BA78CA79DA702
:1003D000DF91CF91FF90EF90DF90CF90BF90AF90E3
:1003E0009F908F907F906F905F904F900895AF9205
:1003F000BF92CF92DF92EF92FF920F931F93CF9312
:10040000DF930E94ED000E944601CEE5D1E0EA892B
:10041000FB89A080B1800F2EFCE2CF2EF1E0DF2E11
:10042000F02D2BED3FE049E450E4F60162A573A501
:1004300084A595A50E945F09F5016083718382837D
:1004400093836E817F81EE24E394F12C01E010E030
:1004500021E030E043E050E08E859F850E94320627
:100460005C016885798503E010E023E030E043E03B
:1004700050E08C859D850E94320621E030E043E00B
:1004800050E0B5010E943E0599878887EA85FB8583
:1004900020813181FC01A081B18114968D919D91C3
:1004A0000D90BC91A02DF90180839183A283B38329
:1004B0006A857B8521E030E041E050E08A899B89B4
:1004C0000E94B805998B888B01E010E021E030E0B4
:1004D00043E050E0BC018A819B810E94320621E00A
:1004E00030E043E050E0BC01888599850E943E05DC
:1004F0009987888721E030E043E050E0BC018C819F
:100500009D810E94B8059D8B8C8B88EC90E00E94A9
:10051000110788EC90E00E942F0781E00E940307FA
:10052000F60182A593A5A4A5B5A5868B978BA08F70
:10053000B18FDF91CF911F910F91FF90EF90DF90DE
:10054000CF90BF90AF9008958F929F92AF92BF923D
:10055000CF92DF92EF92FF920F931F93CF93DF938F
:100560000E94ED000E944601C1E0D0E0812C912C58
:1005700054010CE211E00E94ED000E944601F801D6
:10058000C2A4D3A4E4A4F5A4BE0161507109072E4E
:10059000000C880B990B0E94B60AA50194010E94D9
:1005A000950BA70196010E945F094B015C01BE01FA
:1005B0000D2E000C880B990B0E94B60A9B01AC0112
:1005C000C501B4010E94420A4B015C01F801C68AD0
:1005D000D78AE08EF18E2196C83EF3E0DF0759F608
:1005E00084E690E00E94110784E690E00E942F07C5
:1005F00081E00E940307F99906C0B501A40180E0DB
:1006000090E00E94D40F8FE39CE90197F1F700C0BE
:10061000000080E090E00E94CE0F60935A0170933A
:100620005B0180935C0190935D019F7726EF38E238
:100630004CED5FE30E943D0A88231CF480E00E9499
:100640000307DF91CF911F910F91FF90EF90DF9003
:10065000CF90BF90AF909F908F900895CF92DF92F0
:10066000EF92FF92CF93DF9363E070E081E090E040
:100670000E941105CEE5D1E099838883DC01ED91DC
:10068000FC9183E89FE9A0E2B1EC80839183A2838F
:10069000B383E881F981A081B1814EED52E16DE92A
:1006A00072EC14964D935D936D937C931797019024
:1006B000F081E02D89ED9FE1A7EAB0EC808791877A
:1006C000A287B38761E070E083E090E00E941105AB
:1006D0009B838A83DC01ED91FC918CED93E6A8E08D
:1006E000BDE380839183A283B383EA81FB8102808F
:1006F000F381E02D84E79BEAA3E4BDE3808391834B
:10070000A283B383EA81FB810480F581E02D8AED29
:1007100094ECACE5BFE380839183A283B38361E073
:1007200070E083E090E00E9411059D838C83DC01E2
:10073000ED91FC911082118212821382EC81FD8175
:100740000280F381E02D0F2EFBEDCF2EFFE0DF2E98
:10075000F9E4EF2EF0E4FF2EF02DC082D182E28288
:10076000F382EC81FD810480F581E02D10821182FD
:100770001282138261E070E081E090E00E94110536
:100780009F838E83DC01ED91FC9110821182128295
:10079000138261E070E081E090E00E941105998B86
:1007A000888BDC01ED91FC91108211821282138200
:1007B00061E070E083E090E00E94110599878887EE
:1007C000DC01ED91FC911082118212821382E88586
:1007D000F9850280F381E02DC082D182E282F3822A
:1007E000E885F9850480F581E02D1082118212825E
:1007F000138261E070E081E090E00E9411059B8728
:100800008A87DC01ED91FC91C082D182E282F38281
:1008100061E070E081E090E00E9411059B8B8A8B83
:10082000DC01ED91FC91108211821282138263E04F
:1008300070E083E090E00E9411059D878C87DC01C9
:10084000ED91FC9188E892EFADE7BFE3808391835F
:10085000A283B383EC85FD850190F081E02D8DE4CA
:1008600093EFA6EABBE384839583A683B783EC85E5
:10087000FD850190F081E02D8CE09FE2ABE2B6E3D4
:1008800080879187A287B387EC85FD850280F381FD
:10089000E02D83EB9DEBABEBB7E380839183A283E9
:1008A000B383EC85FD850280F381E02D85E393E041
:1008B000A0E8BFE384839583A683B783EC85FD8599
:1008C0000280F381E02D47E853E163E87AE3408753
:1008D000518762877387EC85FD850480F581E02D63
:1008E00041E259E167E37DE340835183628373838F
:1008F000EC85FD850480F581E02D4AE65FE868E43B
:100900007EE34483558366837783EC85FD8504808D
:10091000F581E02D80879187A287B38761E070E041
:1009200083E090E00E9411059F878E87DC01ED91A6
:10093000FC9185ED93E8AEE6BAE380839183A283D0
:10094000B383EE85FF850280F381E02D8EE69FE67E
:10095000AAE2B6EB80839183A283B383EE85FF8501
:100960000480F581E02D8CE698E3A6EABBEB80835A
:100970009183A283B38361E070E083E090E00E9402
:1009800011059D8B8C8B61E070E081E090E00E940E
:1009900011059F8B8E8BDF91CF91FF90EF90DF90B1
:1009A000CF900895809A819A0E942E030E94E207B8
:1009B0000E94560740914A0150914B0160914C01B1
:1009C00070914D0127EF31E085E891E00E948F079B
:1009D00024EA32E040E050E060E87FEB86E791E017
:1009E0000E948F070E949E0008950E94D20480E01A
:1009F00090E00E94CE0F60935A0170935B01809348
:100A00005C0190935D0181E08093850110927601F5
:100A100085E891E00E94BC0786E791E00E94BC0750
:100A2000F7CFCF92DF92EF92FF920F931F93CF9366
:100A3000DF93EC017B018C01000F111FC8010E94A4
:100A4000060C6C011C161D067CF4EE0CFF1CEE0C53
:100A5000FF1CEC01080F191FC7010E94060C8993A7
:100A60009993C017D107C1F7C601DF91CF911F91AC
:100A70000F91FF90EF90DF90CF9008952F923F92CB
:100A80004F925F926F927F928F929F92AF92BF929E
:100A9000CF92DF92EF92FF920F931F93CF93DF934A
:100AA000082F192FD62FC72F2A013901B901CA01E2
:100AB0000E9411051C01141415040CF045C06C01B2
:100AC000802E912EAD2EBC2E440C551C480E591E66
:100AD00037C0C0E0D0E0E12CF12CD6010D911C9183
:100AE0000C0F1D1FD401ED91FC91CF018C0F9D1FA8
:100AF000F501A081B181AC0FBD1F2D913D914D91AC
:100B00005C91DC016D917D918D919C910E945F09BA
:100B1000F8016083718382839383FFEFEF1AFF0AEA
:100B200024966E147F04C9F682E0C80ED11CA2E0A0
:100B30008A0E911CB2E0AB0EB11CC414D50421F096
:100B40001614170434F2F0CFC101DF91CF911F9139
:100B50000F91FF90EF90DF90CF90BF90AF909F905C
:100B60008F907F906F905F904F903F902F9008955F
:100B70002F923F924F925F926F927F928F929F92AD
:100B8000AF92BF92CF92DF92EF92FF920F931F939B
:100B9000CF93DF93082F192FD62FC72F2A013901A2
:100BA000B901CA010E9411051C01141415040CF0AE
:100BB00045C06C01802E912EAD2EBC2E440C551CD0
:100BC000480E591E37C0C0E0D0E0E12CF12CD60110
:100BD0000D911C910C0F1D1FD401ED91FC91CF01C3
:100BE0008C0F9D1FF501A081B181AC0FBD1F2D9110
:100BF0003D914D915C91DC016D917D918D919C9128
:100C00000E945E09F8016083718382839383FFEF02
:100C1000EF1AFF0A24966E147F04C9F682E0C80E0C
:100C2000D11CA2E08A0E911CB2E0AB0EB11CC41420
:100C3000D50421F01614170434F2F0CFC101DF916E
:100C4000CF911F910F91FF90EF90DF90CF90BF90C9
:100C5000AF909F908F907F906F905F904F903F905C
:100C60002F9008952F923F924F925F926F927F92B2
:100C70008F929F92AF92BF92CF92DF92EF92FF92AC
:100C80000F931F93CF93DF93CDB7DEB72C970FB69B
:100C9000F894DEBF0FBECDBFC82ED92E7E836D83E4
:100CA00058874F83290117012017310751F087E03A
:100CB00091E09F938F930E94270D81E090E00E9426
:100CC0003910B7018F8198850E9411059A8789870D
:100CD0002F813885121613060CF07AC09A83898307
:100CE000CB82DC82220F331F820F931F98878F8362
:100CF0005201AA0CBB1CAD81BE81AA0EBB1E64C0F2
:100D0000F70161917191819191917F01AB85BC85D2
:100D1000ED91FD91BC87AB87E00FF11F2081318100
:100D2000428153810E94950B9B01AC01682D792D66
:100D30008C2D9D2D0E945F09862E972EC82ED92EB0
:100D4000EB85FC85AE16BF06D9F604C0812C912C2C
:100D5000C12CD12CA981BA81ED91FC91E00FF11F3A
:100D6000882D992DAC2DBD2D80839183A283B383D3
:100D7000BFEF6B1A7B0A0C5F1F4F2614370429F450
:100D800014C000E010E0612C712C14141504F4F66A
:100D9000EB81FC81E080F1802D813E81812C912CC2
:100DA000C12CD12C3C872B87ABCF89819A810296AD
:100DB0009A838983AB81BC811296BC83AB83EF811C
:100DC000F8858E179F0721F012141304D4F2EDCF8B
:100DD00089859A852C960FB6F894DEBF0FBECDBFDD
:100DE000DF91CF911F910F91FF90EF90DF90CF9007
:100DF000BF90AF909F908F907F906F905F904F903B
:100E00003F902F900895882331F084B1806684B993
:100E10003F9A579A089584B18F7984B93F9857982B
:100E200008959C01992324F422273327281B390B8A
:100E30004091060150E0421753070CF49A019923A0
:100E40003CF42093CF0010928900109288000895FE
:100E50001092CF00109289002093880008959C0181
:100E6000992324F422273327281B390B40910601AC
:100E700050E0421753070CF49A0199233CF4209355
:100E8000D20010928B0010928A0008951092D20026
:100E900010928B0020938A00089580910601809320
:100EA0008600809106018093D10008950F931F93CF
:100EB000CF93DF9384B18F7984B93F985798E0E856
:100EC000F0E080818068808380818062808300EC94
:100ED00010E0F801808180688083C2ECD0E08881D6
:100EE000886088830E944D07E1E8F0E0808181619D
:100EF0008083F801808182608083E1ECF0E0808172
:100F000081608083888181608883E3ECF0E0808168
:100F100081608083DF91CF911F910F910895FC0133
:100F200010824183528363837483128611861582F3
:100F3000168217821086348723870895CF92DF9216
:100F4000EF92FF92FC018081882389F0C180D280DA
:100F5000E380F480CF0105960E945F089B01AC01FD
:100F6000C701B6010E943D0A881F8827881FFF908D
:100F7000EF90DF90CF9008951F93CF93DF93EC0114
:100F80000E949E07182F8823C1F020E030E040E83F
:100F90005FEB69817A818B819C810E943D0A81117E
:100FA00001C01882EB85FC8509950E94F6072D8308
:100FB0003E834F83588769877A87812FDF91CF914E
:100FC0001F91089585B5836085BD89EF87BDEEE6E5
:100FD000F0E08081826080837894109228011092E2
:100FE000290110922A0110922B010895CF93DF93CB
:100FF00000D000D000D0CDB7DEB78091280190910D
:101000002901A0912A01B0912B0166B589839A83A9
:10101000AB83BC8370E0660F771F660F771F7E83FC
:101020006D83282F3A814B815C817E8180E090E046
:1010300026960FB6F894DEBF0FBECDBFDF91CF91DD
:101040000895CF92DF92EF92FF92CF93DF9300D07B
:1010500000D000D0CDB7DEB70E94F60729833A83CF
:101060004B835C836D837E8369817A818B819C81D4
:101070000E94B40A20E030E04AE754E40E94420AA9
:101080006B017C016D817E8180E090E00E94B40A5A
:1010900020E034E244E759E40E94420AA7019601A5
:1010A0000E945F0926960FB6F894DEBF0FBECDBF33
:1010B000DF91CF91FF90EF90DF90CF9008954F9206
:1010C0005F926F927F928F929F92AF92BF92CF92D8
:1010D000DF92EF92FF92CF93DF93EC010E94210801
:1010E0006B017C01688179818A819B810E94B40AAD
:1010F0004B015C016C817D8180E090E00E94B40A2C
:101100002B013C0120E030E04AE754E4C501B40182
:101110000E94420A4B015C0120E034E244E759E4BA
:10112000C301B2010E94420A9B01AC01C501B40196
:101130000E945F099B01AC01C701B6010E945E09D4
:10114000DF91CF91FF90EF90DF90CF90BF90AF9065
:101150009F908F907F906F905F904F9008951F9217
:101160000F920FB60F9211248F939F93AF93BF935B
:1011700016BC8091280190912901A0912A01B0917B
:101180002B010196A11DB11D809328019093290187
:10119000A0932A01B0932B01BF91AF919F918F91A2
:1011A0000F900FBE0F901F9018951092B90088E411
:1011B0008093B800089594EA9093BC00ECEBF0E0C3
:1011C00090819923ECF79091B900987F983011F0B5
:1011D0009031A1F48093BB0084E88093BC00ECEBD9
:1011E000F0E080818823ECF79091B900987F9831E6
:1011F00039F081E0903429F480E0089581E0089589
:1012000080E00895CF93DF93ECEBF0E024EAA9EBC4
:10121000B0E0CBEBD0E034E844E92083908199231F
:10122000ECF79C91987F983011F09031B1F788835A
:10123000308390819923ECF79C91987F903211F044
:10124000983529F44083908194FDFDCFE6CFDF915E
:10125000CF9108950E94DB08089584E98093BC0033
:10126000ECEBF0E0808184FDFDCF08958093BB001E
:1012700084E88093BC00ECEBF0E080818823ECF7FD
:101280009091B900987F81E0983209F480E0089548
:1012900084EC8093BC00ECEBF0E080818823ECF7D9
:1012A0008091BB00089584E88093BC00ECEBF0E0F3
:1012B00080818823ECF78091BB0008955058BB27AC
:1012C000AA270E9476090C94530B0E94450B38F014
:1012D0000E944C0B20F039F49F3F19F426F40C9433
:1012E0001B0B0EF4E095E7FB0C94150BE92F0E9405
:1012F000640B58F3BA17620773078407950720F049
:1013000079F4A6F50C94860B0EF4E0950B2EBA2F0B
:10131000A02D0B01B90190010C01CA01A0011124FB
:10132000FF27591B99F0593F50F4503E68F11A16A7
:10133000F040A22F232F342F4427585FF3CF469538
:1013400037952795A795F0405395C9F77EF41F165A
:10135000BA0B620B730B840BBAF09150A1F0FF0F24
:10136000BB1F661F771F881FC2F70EC0BA0F621F10
:10137000731F841F48F4879577956795B795F79500
:101380009E3F08F0B0CF9395880F08F09927EE0F95
:101390009795879508950E94450B60F080E891E04D
:1013A00009F49EEF0E944C0B28F040E851E071F4E4
:1013B0005EEF0CC00C941B0B0C94860BE92FE078AD
:1013C0000E94640B40F3092E052AB1F32617370754
:1013D0004807590738F00E2E07F8E02569F0E02598
:1013E000E0640AC0EF6307F8009407FADB01B90173
:1013F0009D01DC01CA01AD01EF930E94590A0E94D0
:10140000530B0E940E0A5F91552339F02BED3FE0FC
:1014100049E450FD49EC0C945F090895DF93DD2702
:10142000B92FBF7740E85FE31616170648075B073A
:1014300018F4D92F0E948D0B9F938F937F936F93F6
:101440000E94020CECEAF0E00E941E0B0E94530B7B
:101450002F913F914F915F910E94A80BDD2351F096
:101460009058A2EA2AED3FE049EC5FE3D0785D278F
:101470000E947609DF910C94530B0E94F10A08F444
:1014800081E008950E94560A0C94530B0E944C0B65
:1014900058F00E94450B40F029F45F3F29F00C946E
:1014A000150B51110C94870B0C941B0B0E94640BB1
:1014B00068F39923B1F3552391F3951B550BBB2783
:1014C000AA2762177307840738F09F5F5F4F220FC8
:1014D000331F441FAA1FA9F335D00E2E3AF0E0E8BF
:1014E00032D091505040E695001CCAF72BD0FE2F09
:1014F00029D0660F771F881FBB1F2617370748079D
:10150000AB07B0E809F0BB0B802DBF01FF27935854
:101510005F4F3AF09E3F510578F00C94150B0C94F8
:10152000870B5F3FE4F3983ED4F3869577956795F4
:10153000B795F7959F5FC9F7880F911D9695879589
:1015400097F90895E1E0660F771F881FBB1F6217A8
:1015500073078407BA0720F0621B730B840BBA0B66
:10156000EE1F88F7E0950895E89409C097FB3EF4D4
:1015700090958095709561957F4F8F4F9F4F9923E0
:10158000A9F0F92F96E9BB279395F695879577955E
:101590006795B795F111F8CFFAF4BB0F11F460FF1E
:1015A0001BC06F5F7F4F8F4F9F4F16C0882311F076
:1015B00096E911C0772321F09EE8872F762F05C08A
:1015C000662371F096E8862F70E060E02AF09A9525
:1015D000660F771F881FDAF7880F9695879597F91A
:1015E0000895990F0008550FAA0BE0E8FEEF1616B4
:1015F0001706E807F907C0F012161306E407F50707
:1016000098F0621B730B840B950B39F40A2661F07A
:10161000232B242B252B21F408950A2609F4A1401D
:10162000A6958FEF811D811D089597F99F6780E82A
:1016300070E060E008959FEF80EC0895DF93CF9312
:101640001F930F93FF92EF92DF927B018C016894BE
:1016500006C0DA2EEF010E94A80BFE01E894A591C6
:101660002591359145915591A6F3EF010E94760998
:10167000FE019701A801DA9469F7DF90EF90FF90DF
:101680000F911F91CF91DF91089500240A941616AF
:10169000170618060906089500240A941216130660
:1016A000140605060895092E0394000C11F48823EE
:1016B00052F0BB0F40F4BF2B11F460FF04C06F5F0A
:1016C0007F4F8F4F9F4F089557FD9058440F551FE0
:1016D00059F05F3F71F04795880F97FB991F61F0B4
:1016E0009F3F79F087950895121613061406551F2B
:1016F000F2CF4695F1DF08C0161617061806991F97
:10170000F1CF86957105610508940895E894BB278B
:1017100066277727CB0197F908959B01AC0160E01C
:1017200070E080E89FE30C94420A0E94A80B0C949E
:10173000530B0E94450B38F00E944C0B20F0952370
:1017400011F00C94150B0C941B0B11240C94870BAB
:101750000E94640B70F3959FC1F3950F50E0551FE5
:10176000629FF001729FBB27F00DB11D639FAA27F6
:10177000F00DB11DAA1F649F6627B00DA11D661F45
:10178000829F2227B00DA11D621F739FB00DA11D66
:10179000621F839FA00D611D221F749F3327A00D20
:1017A000611D231F849F600D211D822F762F6A2FBC
:1017B00011249F5750409AF0F1F088234AF0EE0F21
:1017C000FF1FBB1F661F771F881F91505040A9F74E
:1017D0009E3F510580F00C94150B0C94870B5F3FD6
:1017E000E4F3983ED4F3869577956795B795F7958A
:1017F000E7959F5FC1F7FE2B880F911D9695879502
:1018000097F908959B01AC010C94950B0F931F93CE
:10181000CF93DF938230910510F482E090E0E09165
:101820009401F091950120E030E0A0E0B0E0309725
:1018300019F1408151810281138148175907C8F07D
:101840008417950769F4109731F012960C9312974C
:1018500013961C9327C0009394011093950122C006
:101860002115310519F04217530718F49A01BD01EB
:10187000EF01DF01F801DBCF21153105F9F0281B5D
:10188000390B2430310580F48A819B816115710503
:1018900021F0FB019383828304C090939501809390
:1018A0009401FE01329644C0FE01E20FF31F8193C2
:1018B000919322503109398328833AC020919201B3
:1018C00030919301232B41F42091020130910301C7
:1018D00030939301209392012091000130910101F6
:1018E0002115310541F42DB73EB7409104015091C7
:1018F0000501241B350BE0919201F0919301E21751
:10190000F307A0F42E1B3F0B2817390778F0AC0122
:101910004E5F5F4F2417350748F04E0F5F1F5093FF
:101920009301409392018193919302C0E0E0F0E033
:10193000CF01DF91CF911F910F910895CF93DF9346
:10194000009709F481C0FC01329713821282A091A2
:101950009401B0919501109781F420813181820F1B
:10196000931F20919201309193012817390751F567
:10197000F0939301E093920167C0ED0120E030E025
:10198000CE17DF0740F44A815B819E014115510566
:10199000F1F0EA01F5CFD383C28340815181840FF6
:1019A000951FC817D90759F488819981840F951F0D
:1019B0000296918380838A819B8193838283211500
:1019C000310529F4F0939501E09394013DC0E901BC
:1019D000FB83EA8349915991C40FD51FEC17FD078A
:1019E00061F480819181840F951F0296E9019983AA
:1019F0008883828193819B838A83E0E0F0E0129662
:101A00008D919C911397009719F0FD01DC01F7CFA0
:101A10008D919C9111979D012E5F3F4F820F931FD7
:101A200020919201309193012817390769F430977A
:101A300029F4109295011092940102C0138212822F
:101A4000B0939301A0939201DF91CF910895A0E00C
:101A5000B0E0EDE2FDE00C941210AE014B5F5F4F81
:101A6000FA0161917191AF01809198019091990172
:101A70000E943D0DE2E00C942E10ABE0B0E0E3E4F8
:101A8000FDE00C9402106C017B018A01FC011782BD
:101A90001682838181FFCCC1CE0101963C01F60103
:101AA0009381F70193FD859193FF81917F018823B5
:101AB00009F4BAC1853239F493FD859193FF819180
:101AC0007F01853229F4B60190E00E94340FE7CF00
:101AD000912C212C312CFFE1F315D8F08B3279F0C9
:101AE00038F4803279F08332A1F4232D20611DC0B7
:101AF0008D3261F0803369F4232D216016C0832D6F
:101B00008260382EE32DE4603E2E2AC0F32DF8606B
:101B10001DC037FC2DC020ED280F2A3040F08E323A
:101B2000B9F436FC81C1232D2064322E19C036FE53
:101B300006C08AE0989E200D1124922E11C0EAE082
:101B40002E9E200D1124222EF32DF0623F2E08C070
:101B50008C3621F4832D8068382E02C0883641F4FB
:101B6000F70193FD859193FF81917F018111B3CF9F
:101B7000982F9F7D9554933028F40C5F1F4F9FE35F
:101B800099830DC0833631F0833771F0833509F0C6
:101B900059C021C0F801808189830E5F1F4F8824BE
:101BA0008394912C530113C02801F2E04F0E511C75
:101BB000F801A080B18036FE03C0692D70E002C03C
:101BC0006FEF7FEFC5010E94290F4C018201F32DB9
:101BD000FF773F2E16C0280122E0420E511CF8016B
:101BE000A080B18036FE03C0692D70E002C06FEFA7
:101BF0007FEFC5010E941E0F4C01F32DF0683F2EB0
:101C0000820133FC1BC0822D90E088169906B0F447
:101C1000B60180E290E00E94340F2A94F4CFF501DF
:101C200037FC859137FE81915F01B60190E00E94FB
:101C3000340F21102A9421E0821A91088114910412
:101C400071F7E8C0843611F0893641F5F80137FEA6
:101C500007C060817181828193810C5F1F4F08C032
:101C600060817181072E000C880B990B0E5F1F4F4E
:101C7000F32DFF763F2E97FF09C0909580957095C4
:101C800061957F4F8F4F9F4FF0683F2E2AE030E0E5
:101C9000A3010E94700F882E861845C0853731F445
:101CA000232D2F7EB22E2AE030E025C0932D997F80
:101CB000B92E8F36C1F018F4883579F0B5C0803769
:101CC00019F0883721F0B0C0E92FE061BE2EB4FED4
:101CD0000DC0FB2DF460BF2E09C034FE0AC0292FB1
:101CE0002660B22E06C028E030E005C020E130E0DA
:101CF00002C020E132E0F801B7FE07C060817181C7
:101D0000828193810C5F1F4F06C06081718180E0EA
:101D100090E00E5F1F4FA3010E94700F882E86185F
:101D2000FB2DFF773F2E36FE0DC0232D2E7FA22EDA
:101D3000891458F434FE0BC032FC09C0832D8E7E0A
:101D4000A82E05C0B82CA32C03C0B82C01C0B92CF8
:101D5000A4FE0FC0FE01E80DF11D8081803321F447
:101D60009A2D997EA92E09C0A2FE06C0B394B39401
:101D700004C08A2D867809F0B394A3FC11C0A0FE9C
:101D800006C0B21488F4280C922C9B180EC0B21412
:101D900060F4B60180E290E00E94340FB394F7CF74
:101DA000B21418F42B1802C0982C212CA4FE10C0D9
:101DB000B60180E390E00E94340FA2FE17C0A1FCA0
:101DC00003C088E790E002C088E590E0B6010CC04F
:101DD0008A2D867859F0A1FE02C08BE201C080E214
:101DE000A7FC8DE2B60190E00E94340F891438F40C
:101DF000B60180E390E00E94340F9A94F7CF8A9462
:101E0000F301E80DF11D8081B60190E00E94340FCE
:101E10008110F5CF222009F442CEB60180E290E095
:101E20000E94340F2A94F6CFF6018681978102C072
:101E30008FEF9FEF2B96E2E10C941E10FC010590B2
:101E4000615070400110D8F7809590958E0F9F1FBC
:101E50000895FC016150704001900110D8F7809501
:101E600090958E0F9F1F08950F931F93CF93DF932D
:101E7000FB01238121FD03C08FEF9FEF2CC022FFC8
:101E800016C046815781248135814217530744F497
:101E9000A081B1819D012F5F3F4F318320838C93BF
:101EA000268137812F5F3F4F3783268314C08B01F4
:101EB000EC01FB010084F185E02D0995892BE1F609
:101EC000D80116968D919C911797019617969C9321
:101ED0008E931697CE01DF91CF911F910F910895A8
:101EE000FA01AA27283051F1203181F1E8946F934B
:101EF0006E7F6E5F7F4F8F4F9F4FAF4FB1E03ED0F1
:101F0000B4E03CD0670F781F891F9A1FA11D680F8E
:101F1000791F8A1F911DA11D6A0F711D811D911DC1
:101F2000A11D20D009F468943F912AE0269F112436
:101F30003019305D3193DEF6CF010895462F47709A
:101F4000405D4193B3E00FD0C9F7F6CF462F4F70F5
:101F5000405D4A3318F0495D31FD4052419302D053
:101F6000A9F7EACFB4E0A6959795879577956795F9
:101F7000BA95C9F700976105710508959B01AC01F9
:101F80000A2E06945795479537952795BA95C9F720
:101F9000620F731F841F951FA01D0895A6E1B0E076
:101FA00044E050E00C94E20F0396272F0E94F10FBB
:101FB0000E94F00F252F0E94F10F242F0C94F10F97
:101FC000DC01CB01FC01F999FECF06C0F2BDE1BDF9
:101FD000F89A319600B40D9241505040B8F70895E8
:101FE000262FF999FECF92BD81BDF89A019700B4D2
:101FF000021639F01FBA20BD0FB6F894FA9AF99A72
:102000000FBE08952F923F924F925F926F927F92F0
:102010008F929F92AF92BF92CF92DF92EF92FF92F8
:102020000F931F93CF93DF93CDB7DEB7CA1BDB0BA4
:102030000FB6F894DEBF0FBECDBF09942A88398849
:1020400048885F846E847D848C849B84AA84B98450
:10205000C884DF80EE80FD800C811B81AA81B9815C
:10206000CE0FD11D0FB6F894DEBF0FBECDBFED0170
:062070000895F894FFCF73
:1020760000009C012000FF496E76616C6964206D4A
:1020860061747269782064696D656E73696F6E73C9
:0820960000252E326620200017
:00000001FF
