S016000042616C616E6365426F745F6370702E73726563A1
S11300000C946D000C948A000C948A000C948A0061
S11300100C948A000C948A000C948A000C948A0034
S11300200C948A000C948A000C948A000C948A0024
S11300300C948A000C948A000C948A000C948A0014
S11300400C948A000C948A000C948A000C948A0004
S11300500C948A000C944C050C948A000C948A002D
S11300600C948A000C948A000C948A000C948A00E4
S11300700C948A000C948A000C948A000C948A00D4
S11300800C948A000C948A000C948A000C948A00C4
S11300900C948A000C948A000C948A000C948A00B4
S11300A00C948A000C948A000C948A00084AD73B6A
S11300B03BCE016E84BCBFFDC12F3D6C74319ABD33
S11300C056833DDA3D00C77F11BED9E4BB4C3E9157
S11300D06BAAAABE000000803F0011241FBECFEF10
S11300E0DAE0DEBFCDBF11E0A0E0B1E0EEE1F2E185
S11300F002C005900D92A630B107D9F721E0A6E021
S1130100B1E001C01D92A636B207E1F70E94840354
S11301100C940D090C940000CF93DF93D82FC62FB5
S113012080ED0E9478058D2F0E94D3058C2F0E94AC
S1130130D3050E94CA05DF91CF910895CF93DF9331
S1130140EC010E9472052FEF83EC99E0215080406E
S11301509040E1F700C0000082E490E6A5EEBBE326
S11301608EA39FA3A8A7B9A780E090E0A0E6BFE371
S11301708AA39BA3ACA3BDA31E8A1F8A188E198EC3
S11301808FE692E1A3E8BAE38E8F9F8FA8A3B9A369
S113019080ED0E947805882321F00E94CA05889A80
S11301A0FFCF8BE60E94D30580E00E94D3050E9416
S11301B0CA0568E089E10E948C0068E08CE10E9435
S11301C08C0060E18BE10E948C0068EF83E20E9466
S11301D08C0060E48AE60E948C00DF91CF91089540
S11301E00F931F93CF93DF938C0180ED0E949F05A3
S11301F08BE30E94D30581ED0E94C7050E94E505AB
S1130200C82FD0E0F801D183C0830E94F005DC2F11
S1130210CC27C82BF801D183C0830E94CA0580ED86
S11302200E949F058FE30E94D30581ED0E94C705BC
S11302300E94E505C82FD0E0F801D383C2830E9451
S1130240F005DC2FCC27C82BF801D383C2830E948E
S1130250CA0580ED0E949F0585E40E94D30581EDC7
S11302600E94C7050E94E505C82FD0E0F801D58398
S1130270C4830E94F005DC2FCC27C82BF801D5835A
S1130280C4830E94CA05DF91CF911F910F910895F5
S11302904F925F926F927F928F929F92AF92BF9292
S11302A0CF92DF92EF92FF92CF93DF93EC016881BC
S11302B07981072E000C880B990B0E94890720E096
S11302C03EEF4FEF56E40E94DF0620E030E040E8C6
S11302D050E40E9468086B017C016E837F838887E9
S11302E099876A817B81072E000C880B990B0E94E9
S11302F0890720E03EEF4FEF56E40E94DF0620E03E
S113030030E040E850E40E9468084B015C016A87D1
S11303107B878C879D876C817D81072E000C880BE1
S1130320990B0E94890720E03EEF4FEF56E40E94AC
S1130330DF0620E030E04AE754E40E9468086E8754
S11303407F87888B998B26E33AEF4EE85CE30E9423
S113035068082E8D3F8D48A159A10E9468082B0181
S11303603C016A8F7B8F8C8F9D8FA5019401C701FF
S1130370B6010E947B066B017C016A8B7B8B8C8BA4
S11303809D8B8AA09BA0ACA0BDA02E893F89488DDF
S1130390598DC301B2010E94FC05A50194010E947C
S11303A068082B013C01A501940160E070E080E83D
S11303B09FE30E94FB05A70196010E9468089B0128
S11303C0AC01C301B2010E94FC056AA77BA78CA7FC
S11303D09DA7DF91CF91FF90EF90DF90CF90BF90DA
S11303E0AF909F908F907F906F905F904F90089503
S11303F04F925F926F927F928F929F92AF92BF9231
S1130400CF92DF92EF92FF92CF93DF9300D000D090
S1130410CDB7DEB786E091E00E94F00086E091E07F
S11304200E9448018091300190913101A0913201E4
S1130430B091330189839A83AB83BC8320E030E09D
S1130440A901609134017091350180913601909138
S113045037010E94FC0529813A814B815C810E940D
S1130460FB056B017C0160933C0170933D0180931B
S11304703E0190933F012091380130913901409120
S11304803A0150913B010E94FC052B013C01609311
S113049038017093390180933A0190933B01809025
S11304A0240190902501A0902601B090270120916D
S11304B00001309101014091020150910301C701F3
S11304C0B6010E9468086B017C0120911C013091E7
S11304D01D0140911E0150911F0169817A818B8118
S11304E09C810E94FB05209144013091450140917B
S11304F04601509147010E946808A50194010E9499
S1130500DF069B01AC01C701B6010E94FB056B012C
S11305107C01209140013091410140914201509170
S11305204301C301B2010E946808A50194010E941D
S113053068089B01AC01C701B6010E94FC050E943A
S113054051076B017C01CB010E94AE03C6010E94DE
S1130550CC0381E00E94A00380913001909131018D
S1130560A0913201B091330180931C0190931D013D
S1130570A0931E01B0931F010F900F900F900F9046
S1130580DF91CF91FF90EF90DF90CF90BF90AF902D
S11305909F908F907F906F905F904F9008958F926F
S11305A09F92AF92BF92CF92DF92EF92FF920F93FE
S11305B01F93CF93DF9386E091E00E94F00086E0E2
S11305C091E00E944801C1E0D0E0812C912C5401BB
S11305D086E091E00E94F00086E091E00E944801EC
S11305E006E011E0F801C2A4D3A4E4A4F5A4BE017A
S11305F061507109072E000C880B990B0E94890722
S1130600A50194010E946808A70196010E94FC05B7
S11306104B015C01BE010D2E000C880B990B0E944E
S113062089079B01AC01C501B4010E94DF064B019F
S11306305C01F801C68AD78AE08EF18E2196C83E05
S1130640F3E0DF0729F684E690E00E94AE0384E637
S113065090E00E94CC0381E00E94A003F99906C0B7
S1130660B501A40180E090E00E94DF088FE39CE9DB
S11306700197F1F700C0000080E090E00E94D908E3
S11306806093340170933501809336019093370160
S11306909F7726EF38E24CED5FE30E94DA06882369
S11306A01CF480E00E94A003DF91CF911F910F9171
S11306B0FF90EF90DF90CF90BF90AF909F908F907E
S11306C00895809A819A86E091E00E949E000E949B
S11306D07F040E94F303409124015091250160910D
S11306E026017091270128EF31E085E591E00E9411
S11306F02C042FEC32E040E050E060E87FEB88E42B
S113070091E00E942C0408950E94610380E090E02F
S11307100E94D908609334017093350180933601A7
S11307209093370181E0809355011092480185E54B
S113073091E00E94590488E491E00E945904F7CFA3
S1130740882331F084B1806684B93F9A579A08951A
S113075084B18F7984B93F98579808959C0199235F
S113076024F422273327281B390B4091040150E03D
S1130770421753070CF49A0199233CF42093CF00B9
S1130780109289001092880008951092CF00109260
S113079089002093880008959C01992324F422273A
S11307A03327281B390B4091040150E042175307AB
S11307B00CF49A0199233CF42093D20010928B00FC
S11307C010928A0008951092D20010928B00209308
S11307D08A00089580910401809386008091040129
S11307E08093D10008950F931F93CF93DF9384B127
S11307F08F7984B93F985798E0E8F0E08081806869
S1130800808380818062808300EC10E0F801808125
S113081080688083C2ECD0E08881886088830E94ED
S1130820EA03E1E8F0E0808181618083F80180815E
S113083082608083E1ECF0E0808181608083888144
S113084081608883E3ECF0E0808181608083DF91C4
S1130850CF911F910F910895FC011082418352831F
S1130860638374831286118615821682178210861A
S1130870348723870895CF92DF92EF92FF92FC0191
S11308808081882389F0C180D280E380F480CF0105
S113089005960E94FC049B01AC01C701B6010E94AD
S11308A0DA06881F8827881FFF90EF90DF90CF908B
S11308B008951F93CF93DF93EC010E943B04182FFC
S11308C08823C1F020E030E040E85FEB69817A8161
S11308D08B819C810E94DA06811101C01882EB850C
S11308E0FC8509950E9493042D833E834F8358878A
S11308F069877A87812FDF91CF911F91089585B5FC
S1130900836085BD89EF87BDEEE6F0E0808182607B
S113091080837894109262011092630110926401B2
S1130920109265010895CF93DF9300D000D000D0DA
S1130930CDB7DEB78091620190916301A09164010B
S1130940B091650166B589839A83AB83BC8370E0FB
S1130950660F771F660F771F7E836D83282F3A817A
S11309604B815C817E8180E090E026960FB6F894FE
S1130970DEBF0FBECDBFDF91CF910895CF92DF923E
S1130980EF92FF92CF93DF9300D000D000D0CDB789
S1130990DEB70E94930429833A834B835C836D837F
S11309A07E8369817A818B819C810E94870720E004
S11309B030E04AE754E40E94DF066B017C016D815C
S11309C07E8180E090E00E94870720E034E244E7E3
S11309D059E40E94DF06A70196010E94FC052696B1
S11309E00FB6F894DEBF0FBECDBFDF91CF91FF905D
S11309F0EF90DF90CF9008954F925F926F927F9225
S1130A008F929F92AF92BF92CF92DF92EF92FF921A
S1130A10CF93DF93EC010E94BE046B017C016881DB
S1130A2079818A819B810E9487074B015C016C81DB
S1130A307D8180E090E00E9487072B013C0120E04B
S1130A4030E04AE754E4C501B4010E94DF064B01DB
S1130A505C0120E034E244E759E4C301B2010E949E
S1130A60DF069B01AC01C501B4010E94FC059B019A
S1130A70AC01C701B6010E94FB05DF91CF91FF9045
S1130A80EF90DF90CF90BF90AF909F908F907F902A
S1130A906F905F904F9008951F920F920FB60F9230
S1130AA011248F939F93AF93BF9316BC80916201DF
S1130AB090916301A0916401B09165010196A11D1B
S1130AC0B11D8093620190936301A0936401B0937C
S1130AD06501BF91AF919F918F910F900FBE0F90C1
S1130AE01F9018951092B90088E48093B800089577
S1130AF094EA9093BC00ECEBF0E090819923ECF73E
S1130B009091B900987F983011F09031A1F48093BE
S1130B10BB0084E88093BC00ECEBF0E08081882388
S1130B20ECF79091B900987F983139F081E09034D6
S1130B3029F480E0089581E0089580E00895CF933A
S1130B40DF93ECEBF0E024EAA9EBB0E0CBEBD0E0F0
S1130B5034E844E9208390819923ECF79C91987FB1
S1130B60983011F09031B1F78883308390819923C4
S1130B70ECF79C91987F903211F0983529F44083DA
S1130B80908194FDFDCFE6CFDF91CF9108950E942F
S1130B907805089584E98093BC00ECEBF0E0808153
S1130BA084FDFDCF08958093BB0084E88093BC004E
S1130BB0ECEBF0E080818823ECF79091B900987F0A
S1130BC081E0983209F480E0089584EC8093BC00BD
S1130BD0ECEBF0E080818823ECF78091BB00089572
S1130BE084E88093BC00ECEBF0E080818823ECF790
S1130BF08091BB0008955058BB27AA270E94130672
S1130C000C9426080E94180838F00E941F0820F04F
S1130C1039F49F3F19F426F40C94EE070EF4E09592
S1130C20E7FB0C94E807E92F0E94370858F3BA173A
S1130C30620773078407950720F079F4A6F50C94EE
S1130C4059080EF4E0950B2EBA2FA02D0B01B90113
S1130C5090010C01CA01A0011124FF27591B99F02E
S1130C60593F50F4503E68F11A16F040A22F232F3A
S1130C70342F4427585FF3CF469537952795A7958A
S1130C80F0405395C9F77EF41F16BA0B620B730B31
S1130C90840BBAF09150A1F0FF0FBB1F661F771FA2
S1130CA0881FC2F70EC0BA0F621F731F841F48F457
S1130CB0879577956795B795F7959E3F08F0B0CFE0
S1130CC09395880F08F09927EE0F979587950895C7
S1130CD00E94180860F080E891E009F49EEF0E94F9
S1130CE01F0828F040E851E071F45EEF0CC00C944A
S1130CF0EE070C945908E92FE0780E94370840F376
S1130D00092E052AB1F3261737074807590738F083
S1130D100E2E07F8E02569F0E025E0640AC0EF63D1
S1130D2007F8009407FADB01B9019D01DC01CA014F
S1130D30AD01EF930E94F6060E9426080E94AB06BE
S1130D405F91552339F02BED3FE049E450FD49EC28
S1130D500C94FC050895DF93DD27B92FBF7740E895
S1130D605FE31616170648075B0718F4D92F0E948D
S1130D7060089F938F937F936F930E94D508ECEA4A
S1130D80F0E00E94F1070E9426082F913F914F91B5
S1130D905F910E947B08DD2351F09058A2EA2AED6E
S1130DA03FE049EC5FE3D0785D270E941306DF91B2
S1130DB00C9426080E94C40708F481E008950E9458
S1130DC0F3060C9426080E941F0858F00E94180885
S1130DD040F029F45F3F29F00C94E80751110C947A
S1130DE05A080C94EE070E94370868F39923B1F36C
S1130DF0552391F3951B550BBB27AA27621773073D
S1130E00840738F09F5F5F4F220F331F441FAA1FD0
S1130E10A9F335D00E2E3AF0E0E832D0915050408C
S1130E20E695001CCAF72BD0FE2F29D0660F771F3A
S1130E30881FBB1F261737074807AB07B0E809F020
S1130E40BB0B802DBF01FF2793585F4F3AF09E3FA5
S1130E50510578F00C94E8070C945A085F3FE4F3CA
S1130E60983ED4F3869577956795B795F7959F5FE8
S1130E70C9F7880F911D9695879597F90895E1E034
S1130E80660F771F881FBB1F621773078407BA0793
S1130E9020F0621B730B840BBA0BEE1F88F7E095EE
S1130EA008950E9458076894B1110C945A08089543
S1130EB00E943F0888F09F5798F0B92F9927B7519F
S1130EC0B0F0E1F0660F771F881F991F1AF0BA95EA
S1130ED0C9F714C0B13091F00E945908B1E00895E7
S1130EE00C945908672F782F8827B85F39F0B93FD9
S1130EF0CCF3869577956795B395D9F73EF490959D
S1130F008095709561957F4F8F4F9F4F0895E8941A
S1130F1009C097FB3EF490958095709561957F4F3D
S1130F208F4F9F4F9923A9F0F92F96E9BB279395EB
S1130F30F695879577956795B795F111F8CFFAF4FB
S1130F40BB0F11F460FF1BC06F5F7F4F8F4F9F4F2C
S1130F5016C0882311F096E911C0772321F09EE88A
S1130F60872F762F05C0662371F096E8862F70E0F0
S1130F7060E02AF09A95660F771F881FDAF7880FCA
S1130F809695879597F90895990F0008550FAA0B20
S1130F90E0E8FEEF16161706E807F907C0F0121688
S1130FA01306E407F50798F0621B730B840B950B8B
S1130FB039F40A2661F0232B242B252B21F40895E0
S1130FC00A2609F4A140A6958FEF811D811D08957D
S1130FD097F99F6780E870E060E008959FEF80ECE8
S1130FE00895DF93CF931F930F93FF92EF92DF92B5
S1130FF07B018C01689406C0DA2EEF010E947B0805
S1131000FE01E894A5912591359145915591A6F35A
S1131010EF010E941306FE019701A801DA9469F713
S1131020DF90EF90FF900F911F91CF91DF91089582
S113103000240A94161617061806090608950024B3
S11310400A9412161306140605060895092E03942D
S1131050000C11F4882352F0BB0F40F4BF2B11F4A1
S113106060FF04C06F5F7F4F8F4F9F4F089557FD00
S11310709058440F551F59F05F3F71F04795880F02
S113108097FB991F61F09F3F79F087950895121699
S113109013061406551FF2CF4695F1DF08C0161645
S11310A017061806991FF1CF8695710561050894F6
S11310B00895E894BB2766277727CB0197F908950D
S11310C09B01AC0160E070E080E89FE30C94DF06D4
S11310D00E947B080C9426080E94180838F00E948D
S11310E01F0820F0952311F00C94E8070C94EE07E8
S11310F011240C945A080E94370870F3959FC1F389
S1131100950F50E0551F629FF001729FBB27F00DB1
S1131110B11D639FAA27F00DB11DAA1F649F662706
S1131120B00DA11D661F829F2227B00DA11D621F55
S1131130739FB00DA11D621F839FA00D611D221F0F
S1131140749F3327A00D611D231F849F600D211DF3
S1131150822F762F6A2F11249F5750409AF0F1F076
S113116088234AF0EE0FFF1FBB1F661F771F881FDF
S113117091505040A9F79E3F510580F00C94E80728
S11311800C945A085F3FE4F3983ED4F38695779520
S11311906795B795F795E7959F5FC1F7FE2B880F85
S11311A0911D9695879597F908959B01AC010C9430
S11311B06808A6E1B0E044E050E00C94ED08039622
S11311C0272F0E94FC080E94FB08252F0E94FC0880
S11311D0242F0C94FC08DC01CB01FC01F999FECF0F
S11311E006C0F2BDE1BDF89A319600B40D924150AB
S11311F05040B8F70895262FF999FECF92BD81BDCE
S1131200F89A019700B4021639F01FBA20BD0FB640
S1111210F894FA9AF99A0FBE0895F894FFCF55
S109121E00C05A44FF0069
S9030000FC
